:100000000C942A000C94CC010C943C000C943C0001
:100010000C943C000C943C000C943C000C943C0070
:100020000C943C000C943C000C943C000C943C0060
:100030000C943C000C943C000C943C000C943C0050
:100040000C943C000C943C000C943C000C943C0040
:100050000C943C0011241FBECFE5D8E0DEBFCDBF1D
:1000600020E0A0E6B0E001C01D92A136B207E1F7A2
:100070000E94EB010C94C2050C94000081E0809377
:10008000600060E081E40E94DC0161E081E40E94A4
:10009000DC0162E081E40E94DC0162E082E40E9413
:1000A000DC0161E082E40E94DC0160E082E40E9405
:1000B000DC0162E084E40E94D8010E941B03789472
:1000C00085B7836085BF8BB780648BBF0895CF935E
:1000D000DF93C0E0D0E034C062E082E40E94E0013F
:1000E00080916000882391F060E081E40E94E40147
:1000F00061E081E40E94E40162E081E40E94E001A9
:1001000084EF91E00E941E0321961AC062E082E40F
:100110000E94E40162E081E40E94E00160E082E488
:100120000E94E00188E893E10E941E0360E082E4FF
:100130000E94E40181E080936000C0E0D0E05FC0F5
:10014000CA30D1054CF2F9CF62E082E40E94E001AE
:1001500080916000882351F061E081E40E94E80111
:1001600084EF91E00E941E03219649C062E081E481
:100170000E94E40162E082E40E94E00161E081E427
:100180000E94E40161E082E40E94E401C0E0D0E06A
:100190000DC061E081E40E94E80161E082E40E9418
:1001A000E80184EF91E00E941E032196CA30D10538
:1001B00084F362E082E40E94E40161E081E40E9451
:1001C000E40161E082E40E94E40160E082E40E94D4
:1001D000E00162E081E40E94E00188E893E10E948E
:1001E0001E0360E082E40E94E40162E081E40E9478
:1001F000E40181E080936000C0E0D0E068C0CA30D4
:10020000D1050CF4A1CFF8CF62E082E40E94E001B6
:1002100080916000882391F062E081E40E94E40113
:1002200061E081E40E94E40160E081E40E94E00179
:1002300084EF91E00E941E03219649C062E082E4AF
:100240000E94E00161E081E40E94E40161E082E457
:100250000E94E401C0E0D0E00DC061E081E40E94B2
:10026000E80161E082E40E94E80184EF91E00E94ED
:100270001E032196CA30D10584F360E081E40E9418
:10028000E40162E082E40E94E40161E081E40E9412
:10029000E40161E082E40E94E40160E082E40E9403
:1002A000E00162E081E40E94E00188E893E10E94BD
:1002B0001E0360E082E40E94E40162E081E40E94A7
:1002C000E40181E080936000C0E0D0E05EC0CA300D
:1002D000D1050CF499CFF8CF62E082E40E94E001EE
:1002E00080916000882351F061E081E40E94E80180
:1002F00084EF91E00E941E03219647C060E081E4F4
:100300000E94E40162E082E40E94E00161E081E495
:100310000E94E40161E082E40E94E401C0E0D0E0D8
:100320000DC061E081E40E94E80161E082E40E9486
:10033000E80184EF91E00E941E032196CA30D105A6
:1003400084F362E082E40E94E40161E081E40E94BF
:10035000E40161E082E40E94E40160E082E40E9442
:10036000E00162E081E40E94E00188E893E10E94FC
:100370001E0360E082E40E94E40162E081E40E94E6
:10038000E40181E08093600004C0CA30D1050CF420
:10039000A3CFDF91CF9108951F920F920FB60F92C6
:1003A0001124109260000F900FBE0F901F901895AF
:1003B00040E00E94F001089541E00E94F00108959C
:1003C00041E00E946A02089540E00E946A02089596
:1003D0000E94E40208950E943E000E946700FDCF43
:1003E000823431F118F4813439F008958334E1F125
:1003F000843409F454C0089541110CC02AB381E03B
:1004000090E002C0880F991F6A95E2F780958223D9
:100410008ABB0895413009F05CC02AB381E090E0C6
:1004200002C0880F991F6A95E2F7822B8ABB089554
:1004300041110CC027B381E090E002C0880F991FE2
:100440006A95E2F78095822387BB0895413009F0D1
:1004500040C027B381E090E002C0880F991F6A95E1
:10046000E2F7822B87BB089541110CC024B381E0D1
:1004700090E002C0880F991F6A95E2F78095822369
:1004800084BB0895413029F524B381E090E002C097
:10049000880F991F6A95E2F7822B84BB089541115A
:1004A0000CC021B381E090E002C0880F991F6A95CB
:1004B000E2F78095822381BB0895413051F421B346
:1004C00081E090E002C0880F991F6A95E2F7822BC5
:1004D00081BB0895823431F118F4813439F00895E4
:1004E0008334E1F1843409F454C0089541110CC0FF
:1004F0002BB381E090E002C0880F991F6A95E2F764
:10050000809582238BBB0895413009F05CC02BB3EA
:1005100081E090E002C0880F991F6A95E2F7822B74
:100520008BBB089541110CC028B381E090E002C05C
:10053000880F991F6A95E2F78095822388BB0895FA
:10054000413009F040C028B381E090E002C0880F3C
:10055000991F6A95E2F7822B88BB089541110CC060
:1005600025B381E090E002C0880F991F6A95E2F7F9
:100570008095822385BB0895413029F525B381E01C
:1005800090E002C0880F991F6A95E2F7822B85BB25
:10059000089541110CC022B381E090E002C0880FA1
:1005A000991F6A95E2F78095822382BB08954130B6
:1005B00051F422B381E090E002C0880F991F6A9540
:1005C000E2F7822B82BB08958234A1F018F48134C3
:1005D00031F008958334C9F0843411F108952BB3B8
:1005E00081E090E002C0880F991F6A95E2F78227A8
:1005F0008BBB089528B381E090E002C0880F991F5B
:100600006A95E2F7822788BB089525B381E090E0E0
:1006100002C0880F991F6A95E2F7822785BB08956B
:1006200022B381E090E002C0880F991F6A95E2F73B
:10063000822782BB089513BE12BE08958F929F92A7
:10064000AF92BF92CF92DF92EF92FF92CF93DF9360
:10065000BC0180E090E00E94CF046B017C012FE69A
:1006600032E143E852E40E94290488239CF4A70164
:1006700096016FE672E183E892E40E94A5032FE6FB
:1006800032E143E85EE30E942E040E94A004C1E030
:10069000D0E03CC02FE632E143E852E4C701B601A6
:1006A0000E942904882379F12FE632E143E852E4DD
:1006B000C701B6010E942E040E9412040E94A004E9
:1006C0004B015C01EB012FE632E143E85EE3C70139
:1006D000B6010E942E046B017C01B40180E090E021
:1006E0000E94CF049B01AC01C701B6010E942E04F9
:1006F0009B01AC0160E070E080E893E40E94A503F8
:100700000E94A00403C060E0C1E0D0E062BF83B7F4
:10071000846083BF20E030E008C008B600FEFDCF53
:1007200088B7816088BF2F5F3F4F2C173D07A8F324
:1007300013BE12BEDF91CF91FF90EF90DF90CF906C
:10074000BF90AF909F908F9008955058BB27AA27D5
:100750000E94BD030C9470050E94620538F00E944F
:10076000690520F039F49F3F19F426F40C945F05D5
:100770000EF4E095E7FB0C943005E92F0E9481050B
:1007800058F3BA17620773078407950720F079F4C6
:10079000A6F50C94BB050EF4E0950B2EBA2FA02DF8
:1007A0000B01B90190010C01CA01A0011124FF271E
:1007B000591B99F0593F50F4503E68F11A16F04019
:1007C000A22F232F342F4427585FF3CF4695379518
:1007D0002795A795F0405395C9F77EF41F16BA0BDD
:1007E000620B730B840BBAF09150A1F0FF0FBB1F8B
:1007F000661F771F881FC2F70EC0BA0F621F731FD4
:10080000841F48F4879577956795B795F7959E3F30
:1008100008F0B0CF9395880F08F09927EE0F9795C1
:10082000879508950E94A30590F09F3748F4911191
:1008300016F40C94BC0560E070E080E89FE3089536
:1008400026F01B16611D711D811D0C9436050C943C
:1008500051050E940C0508F481E008950E944204AD
:100860000C9470050E94690558F00E94620540F0E2
:1008700029F45F3F29F00C94300551110C94BC050C
:100880000C945F050E94810568F39923B1F3552309
:1008900091F3951B550BBB27AA2762177307840793
:1008A00038F09F5F5F4F220F331F441FAA1FA9F329
:1008B00035D00E2E3AF0E0E832D091505040E69517
:1008C000001CCAF72BD0FE2F29D0660F771F881F78
:1008D000BB1F261737074807AB07B0E809F0BB0B6B
:1008E000802DBF01FF2793585F4F3AF09E3F51057F
:1008F00078F00C9430050C94BC055F3FE4F3983E0F
:10090000D4F3869577956795B795F7959F5FC9F767
:10091000880F911D9695879597F90895E1E0660FE8
:10092000771F881FBB1F621773078407BA0720F061
:10093000621B730B840BBA0BEE1F88F7E0950895CA
:100940000E94890588F09F5798F0B92F9927B751D1
:10095000B0F0E1F0660F771F881F991F1AF0BA9563
:10096000C9F714C0B13091F00E94BB05B1E0089501
:100970000C94BB05672F782F8827B85F39F0B93FF3
:10098000CCF3869577956795B395D9F73EF4909516
:100990008095709561957F4F8F4F9F4F0895E89494
:1009A00009C097FB3EF490958095709561957F4FB7
:1009B0008F4F9F4F9923A9F0F92F96E9BB27939565
:1009C000F695879577956795B795F111F8CFFAF475
:1009D000BB0F11F460FF1BC06F5F7F4F8F4F9F4FA6
:1009E00016C0882311F096E911C0772321F09EE804
:1009F000872F762F05C0662371F096E8862F70E06A
:100A000060E02AF09A95660F771F881FDAF7880F43
:100A10009695879597F90895990F0008550FAA0B99
:100A2000E0E8FEEF16161706E807F907C0F0121601
:100A30001306E407F50798F0621B730B840B950B04
:100A400039F40A2661F0232B242B252B21F4089559
:100A50000A2609F4A140A6958FEF811D811D0895F6
:100A600097F99F6780E870E060E00895882371F44B
:100A7000772321F09850872B762F07C0662311F437
:100A800099270DC09051862B70E060E02AF09A956E
:100A9000660F771F881FDAF7880F9695879597F965
:100AA00008959F3F31F0915020F487957795679591
:100AB000B795880F911D9695879597F908959FEFA3
:100AC00080EC089500240A941616170618060906E5
:100AD000089500240A9412161306140605060895B4
:100AE000092E0394000C11F4882352F0BB0F40F43C
:100AF000BF2B11F460FF04C06F5F7F4F8F4F9F4F7C
:100B0000089557FD9058440F551F59F05F3F71F0FD
:100B10004795880F97FB991F61F09F3F79F0879564
:100B20000895121613061406551FF2CF4695F1DFED
:100B300008C0161617061806991FF1CF869571057D
:100B40006105089408950E948905A0F0BEE7B917D1
:100B500088F4BB279F3860F41616B11D672F782FD5
:100B60008827985FF7CF869577956795B11D939500
:100B70009639C8F30895E894BB2766277727CB01F9
:080B800097F90895F894FFCFE6
:00000001FF
