:100000000C942A000C9434000C9434000C943400AA
:100010000C9434000C9434000C9434000C94340090
:100020000C9434000C9434000C9434000C94340080
:100030000C9434000C9434000C9434000C94340070
:100040000C9434000C9434000C9434000C94340060
:100050000C94340011241FBECFE5D8E0DEBFCDBF25
:100060000E9436000C9484020C94000041E063E08E
:1000700082E40E9441000E94BB0082E30E94C6000D
:10008000FFCF823431F118F4813439F0089583348C
:10009000E1F1843409F454C0089541110CC02AB32D
:1000A00081E090E002C0880F991F6A95E2F7809581
:1000B00082238ABB0895413009F05CC02AB381E0F5
:1000C00090E002C0880F991F6A95E2F7822B8ABBE5
:1000D000089541110CC027B381E090E002C0880F61
:1000E000991F6A95E2F78095822387BB0895413076
:1000F00009F040C027B381E090E002C0880F991F4B
:100100006A95E2F7822B87BB089541110CC024B396
:1001100081E090E002C0880F991F6A95E2F7809510
:10012000822384BB0895413029F524B381E090E017
:1001300002C0880F991F6A95E2F7822B84BB08954D
:1001400041110CC021B381E090E002C0880F991FDB
:100150006A95E2F78095822381BB0895413051F47E
:1001600021B381E090E002C0880F991F6A95E2F701
:10017000822B81BB089583B7806483BF83B780627D
:1001800083BF83B7816083BF12BE0895CF93C82F0A
:1001900041E063E082E40E9441006C2F70E0762F22
:1001A0006627072E000C880B990B0E94F80120E0AF
:1001B00030E048EC52E40E94550120E030E040E895
:1001C0005FE30E94E8000E94C7016CBFCF910895D1
:1001D0005058BB27AA270E9400010C944A020E9493
:1001E0003C0238F00E94430220F039F49F3F19F49A
:1001F00026F40C9439020EF4E095E7FB0C943302DC
:10020000E92F0E945B0258F3BA176207730784074D
:10021000950720F079F4A6F50C947D020EF4E09594
:100220000B2EBA2FA02D0B01B90190010C01CA01B0
:10023000A0011124FF27591B99F0593F50F4503E5B
:1002400068F11A16F040A22F232F342F4427585F4D
:10025000F3CF469537952795A795F0405395C9F765
:100260007EF41F16BA0B620B730B840BBAF091501D
:10027000A1F0FF0FBB1F661F771F881FC2F70EC0BC
:10028000BA0F621F731F841F48F48795779567958F
:10029000B795F7959E3F08F0B0CF9395880F08F07B
:1002A0009927EE0F9795879508950E9469010C9400
:1002B0004A020E94430258F00E943C0240F029F496
:1002C0005F3F29F00C94330251110C947E020C9480
:1002D00039020E945B0268F39923B1F3552391F32D
:1002E000951B550BBB27AA2762177307840738F0A5
:1002F0009F5F5F4F220F331F441FAA1FA9F335D002
:100300000E2E3AF0E0E832D091505040E695001CB5
:10031000CAF72BD0FE2F29D0660F771F881FBB1F6F
:10032000261737074807AB07B0E809F0BB0B802D4D
:10033000BF01FF2793585F4F3AF09E3F510578F079
:100340000C9433020C947E025F3FE4F3983ED4F3A6
:10035000869577956795B795F7959F5FC9F7880F4D
:10036000911D9695879597F90895E1E0660F771F9F
:10037000881FBB1F621773078407BA0720F0621B30
:10038000730B840BBA0BEE1F88F7E09508950E945B
:10039000630288F09F5798F0B92F9927B751B0F0B2
:1003A000E1F0660F771F881F991F1AF0BA95C9F7F9
:1003B00014C0B13091F00E947D02B1E008950C9418
:1003C0007D02672F782F8827B85F39F0B93FCCF3CB
:1003D000869577956795B395D9F73EF49095809576
:1003E000709561957F4F8F4F9F4F0895E89409C096
:1003F00097FB3EF490958095709561957F4F8F4F58
:100400009F4F9923A9F0F92F96E9BB279395F6956D
:10041000879577956795B795F111F8CFFAF4BB0FEB
:1004200011F460FF1BC06F5F7F4F8F4F9F4F16C04F
:10043000882311F096E911C0772321F09EE8872FD9
:10044000762F05C0662371F096E8862F70E060E095
:100450002AF09A95660F771F881FDAF7880F96950E
:10046000879597F9089597F99F6780E870E060E0B5
:1004700008959FEF80EC089500240A94161617063D
:1004800018060906089500240A9412161306140685
:1004900005060895092E0394000C11F4882352F0E8
:1004A000BB0F40F4BF2B11F460FF04C06F5F7F4FA0
:1004B0008F4F9F4F089557FD9058440F551F59F087
:1004C0005F3F71F04795880F97FB991F61F09F3F41
:1004D00079F087950895121613061406551FF2CF6A
:1004E0004695F1DF08C0161617061806991FF1CFBA
:1004F00086957105610508940895E894BB276627E1
:0C0500007727CB0197F90895F894FFCFFE
:00000001FF
